:020000040800F2
:10000000A0430020D90B0008C1020008C302000869
:10001000C7020008CB020008CF0200080000000061
:10002000000000000000000000000000D3020008F3
:10003000D502000800000000D7020008E502000811
:10004000F30B0008F30B0008F30B0008F30B000898
:10005000F30B0008F30B0008F30B0008F30B000888
:10006000F30B0008F30B0008F30B0008F30B000878
:10007000F30B0008F30B0008F30B0008F30B000868
:10008000F30B0008F30B0008F30B0008F30B000858
:10009000F30B0008F30B0008F30B00088D46000873
:1000A000F30B0008F30B0008F30B0008F30B000838
:1000B0001B4A00088F4A0008014B0008F30B000898
:1000C000F30B0008F30B0008F30B0008F30B000818
:1000D000F30B0008DD320008E7320008F1320008B7
:1000E000F30B0008F30B0008F30B0008F30B0008F8
:1000F000F30B0008F30B0008F30B0008F30B0008E8
:10010000F30B0008F30B0008734B0008F30B000817
:10011000F30B0008F30B0008E54B0008574C0008F0
:10012000F30B0008F30B0008F30B0008F30B0008B7
:1001300000F002F800F0B4F80AA090E8000C824445
:100140008344AAF10107DA4501D100F0A9F8AFF222
:10015000090EBAE80F0013F0010F18BFFB1A43F0A5
:100160000103184720B0000040B000000A444FF0DF
:10017000000C10F8013B13F0070408BF10F8014B06
:100180001D1108BF10F8015B641E05D010F8016B4B
:10019000641E01F8016BF9D113F0080F1EBF10F8AF
:1001A000014BAD1C0C1B09D16D1E58BF01F801CBD2
:1001B000FAD505E014F8016B01F8016B6D1EF9D555
:1001C0009142D6D37047000000230024002500266A
:1001D000103A28BF78C1FBD8520728BF30C148BFAA
:1001E0000B6070476E2905F0A384702905F0EC853B
:1001F00066290AF0768665290AF0738667290AF06F
:1002000070866129AFF3008003681B0A28BF41F0A4
:100210008001692905F05084642905F04D84752911
:1002200005F04A846F2905F07785782905F0B885AF
:10023000E92905F00F85E42905F00C85F52905F07D
:100240000985EF2905F07485F82905F0B78503685D
:10025000DB0928BF41F08001632906F04181732941
:1002600006F04681E32906F05181F32906F0568114
:10027000002070471FB50AF0A8FD06F0A1F90400A0
:100280000020002109F0E2FD401C606000200021F8
:1002900009F0C6FDE06005F097FB1FBD10B510BD6D
:1002A00006F060F91146FFF7E5FF00F0BFF906F030
:1002B0003DFA03B4FFF7F2FF03BC02F093FE000027
:1002C000704700BFFEE700BFFEE700BFFEE700BFCC
:1002D000FEE77047704770470B48006870470B494E
:1002E0000860704710B50848006800F10100064931
:1002F00008600648006810B104480068804702485A
:10030000006802F06DFF10BD000000200400002016
:100310004FF0000108466D4A126842F480326B4B80
:100320001A6000BF694A126802F4003001F101014D
:1003300010B9B1F5A06FF5D1644A126812F4003F0C
:1003400002D04FF0010001E04FF00000012842D13F
:100350005F4A126842F010025D4B1A601A4612683A
:1003600022F003021A601A46126842F002021A6072
:10037000564A5268554B5A601A4652685A601A4695
:10038000526842F480625A601A46526822F47C1223
:100390005A601A46526842F4E8125A601A461268C5
:1003A00042F080721A6000BF484A126812F0007F63
:1003B000FAD0464A526822F00302444B5A601A4669
:1003C000526842F002025A6000BF404A526802F08E
:1003D0000C02082AF9D1704710B5FFF799FF10BD3C
:1003E00010B53A48006840F00100384908600846F6
:1003F0004068384900EA010034494860084600680E
:10040000354900EA0100314908600846006820F4D7
:10041000802008600846406820F4FE0048604FF4E1
:100420001F008860FFF7D8FF4FF000602B4908607D
:1004300010BD10B54FF0000108460246234B5B6823
:1004400003F00C0121B1042906D008292CD107E0C2
:10045000234B244C23602BE0214B224C236027E0CC
:100460001A4B5B6803F47010184B5B6803F480321E
:100470004FF0020303EB90402AB91B4B00FB03F340
:10048000184C23600FE0114B5B6813F4003F05D05C
:10049000154B00FB03F3134C236004E0104B00FBEF
:1004A00003F3104C236003E00D4B0E4C236000BFA0
:1004B00000BF064B5B68C3F303130C4CE15C094BB4
:1004C0001B6823FA01F3074C236010BD00100240A3
:1004D000002002400000FFF8FFFFF6FE08ED00E0FC
:1004E00000127A000800002000093D000C000020E6
:1004F00070472DE9FC4105460C462E46B4F5806F49
:1005000015DB00BFEDA009F0D7FC074625202346E8
:100510004FF48062EEA1CDE90070FB4803F0DAFDF4
:10052000FAA1F94803F0D6FD00BF40F2FF344FF0C6
:10053000000004E0315CF64A115400F10100A042D1
:10054000F8DB4FF00000F24908550B462246014601
:100550004FF0050003F0D0F8BDE8FC812DE9FC4127
:1005600005460C462E46B4F5806F15DB00BFD3A0C0
:1005700009F0A2FC0746342023464FF48062E5A12F
:10058000CDE90070E04803F0A5FDE0A1DE4803F0EE
:10059000A1FD00BF40F2FF344FF0000004E0315CE9
:1005A000EA4A115400F10100A042F8DB4FF00000CC
:1005B000E64908550B46224601464FF0040003F079
:1005C0009BF8BDE8FC8170B506460C46E04800F09B
:1005D0004FFD00F0C0054FF00003224629464FF0C2
:1005E000080003F089F870BD10B504464FF0000311
:1005F0001A4619464FF0020003F07EF810BD70B5A0
:10060000064605F007F8002004F0B5FC0546012079
:1006100004F0B1FC45EA002405F003F80546002388
:1006200022462946012003F067F870BD94B002F01D
:1006300069FC4FF000044FF03402C64907A805F0EA
:100640008DF902F0C9FC4FF48060C3490346C34AE8
:10065000CDE90010AFF265114FF4E13002F04DFE2C
:100660004FF48060BE490346BE4ACDE90010AFF2A8
:1006700013114FF4E13002F020FDAFF2B50004F0A9
:100680001FF804F0C5FC0121080204F0E1FC01217F
:10069000480204F0DDFC0121880204F0D9FC04F0DA
:1006A000CBFB03F0D4FAC82002F067FC00BF83A0A4
:1006B00009F002FC05467E232A46ABA1924803F0CE
:1006C00009FD92A1904803F005FD00BF4FF4801191
:1006D000B1F1807F00D327E021F07F40A0F101003D
:1006E0004FF0E02250614FF0FF304FF00F02002832
:1006F0000ADA4FEA02734FEA1366A04B00F00F05C7
:10070000A5F104055E5505E04FEA02734FEA136553
:100710009B4B1D5400BF4FF000004FF0E022906152
:100720004FF00700106100BF04F06CFD03F058F8B3
:10073000079C204606F003FC0023AFF2531248F654
:10074000A041C82004F089F90023AFF24D1248F609
:10075000A041282004F09EFA00210F2004F0DCFBC9
:100760000121880204F074FC00210F2004F0D4FB66
:1007700000BF04AB06AA05A903A802F0E6FF002803
:100780007ED09DF80C0005281CD17EA15E48069AFB
:1007900003F0A0FC4FF0000507E00498425D7CA147
:1007A000594803F097FC05F1010506988542F4D3FA
:1007B00079A1554803F08EFC069881B2049802F0A6
:1007C0008DFF56E19DF80C00042804D15F4806997E
:1007D00003F08AFA4DE19DF80C0008281CD16F48FF
:1007E000844206D10598C0F3C711204608F04EF99F
:1007F0003FE16B48844204D10599C1F3C71000BFA3
:1008000037E16848844202D067488442D9D10599CB
:10081000C1F3C71000BF2CE19DF80C0006283ED1A3
:10082000069E06980D2811D300BF24A009F044FBB2
:100830000546AE202B4600905CA13348069A03F093
:1008400049FC32A1304803F045FC27E007A850F8E6
:100850002600A04222D025464FF0000028712868CB
:1008600041682846884700BF07A850F8264000BFC7
:1008700012A009F021FB0546B4202B46324600E0C9
:10088000C7E051A10090204803F024FC1FA11E489E
:1008900003F020FC00BF204606F051FBE9E09DF884
:1008A0000C00022808D12546287920B128688168E3
:1008B0002846884797E095E096E000002E2E5C756C
:1008C0007365725C6D61696E2E637070000000006C
:1008D000573A75617274332062756666657220736B
:1008E000697A6528256429206973206E6F742065F4
:1008F0006E6F756768203A20256420696E20257325
:1009000028256429000000003A0100200A000000A8
:10091000A4010020573A75617274322062756666D0
:1009200065722073697A6528256429206973206EB1
:100930006F7420656E6F756768203A2025642069A2
:100940006E2025732825642900000000A4050020DE
:1009500000080140E8AE0008A4090020A40D002012
:10096000A4110020A4150020493A52657365742033
:10097000696E2025732825642900000018ED00E029
:1009800000E400E073656E64203A256420200000D6
:1009900030782578200000000D0A0000881B002018
:1009A000A01A0020B01A0020C8190020453A756E20
:1009B0006B6E6F776E207061676520256420696EAD
:1009C0002025732825642900493A70616765202530
:1009D0006420656E74657220696E20257328256415
:1009E0002900000000BF44E09DF80C00012840D120
:1009F000059F069885B22E464FEAE57105EB917189
:100A00004FEAA10004F077FC2946384604F00CFEBA
:100A10002FE002F0B7FF0546202D24D04B48007888
:100A2000A84220D000BFAFF26C1009F045FA06468C
:100A3000C8202B462A4646A1CDE9005602904B48D5
:100A400003F048FBAFF23C11484803F043FB00BF02
:100A500026462F46307900B904E030683946C2682E
:100A60003046904700BF39480570C82002F085FA2B
:100A700000BF7EE610B53E4C204606F0CFFA044695
:100A80003C4820604FF00000A06000BF3A4C204678
:100A900006F0C4FA0446394820604FF00000A06018
:100AA00000BF374C204606F0B9FA044635482060AE
:100AB0004FF00000A06000BF334C204606F0AEFAB5
:100AC00004463248206000BF314C204606F0A6FAAA
:100AD000044630482060304C204609F079F904463D
:100AE0002E48206000BF2E4C204606F097FA0446A0
:100AF0002C4820602C4C204606F090FA04462B48E7
:100B000020602B4C204606F089FA044629482060D4
:100B1000294C204606F082FA044628482060284CDA
:100B2000204609F055F9044626482060264C204608
:100B300006F074FA044625482060254C204606F04D
:100B40006DFA04462348206010BD000060000020BC
:100B5000493A636D642025635B307825782F2564DE
:100B60005D20696E20257328256429003A01002044
:100B7000A419002030B00008B019002048B00008C7
:100B8000BC19002060B000083000002078B00008D8
:100B90003800002090B00008C8190020A8B0000854
:100BA000A01A0020C4B0000840000020DCB00008FB
:100BB00048000020F4B00008500000200CB10008EC
:100BC000B01A002024B100085800002040B10008ED
:100BD000881B002058B10008094880470948004791
:100BE000FEE7FEE7FEE7FEE7FEE7FEE7FEE7FEE7DD
:100BF000FEE7FEE704480549054A064B704700003A
:100C0000E103000831010008A03D0020A0430020BE
:100C1000A03F0020A03F0020384940EA0101384AA7
:100C20001160704770B54FF000010B464FF00F0296
:100C3000C4784CB3324C246804F4E064C4F5E06436
:100C40004FEA1421C1F1040322FA01F2447804FAB4
:100C500003F1847804EA020444EA01014FEA011135
:100C6000284C0678A155047804F01F054FF00104C4
:100C700004FA05F405784FEA65154FF0E02606EB17
:100C80008505C5F800410CE0047804F01F054FF01D
:100C9000010404FA05F41C4D06784FEA661645F87F
:100CA000264070BD194A01EA020242EA0002184BCE
:100CB0001A60704731B1174A126842EA0002154BB8
:100CC0001A6005E0134A126822EA0002114B1A600A
:100CD0007047042808D14FF0E021096941F0040170
:100CE0004FF0E022116107E04FF0E021096921F0A7
:100CF00004014FF0E0221161704700000000FA0586
:100D00000CED00E000E400E080E100E080FFFF1F68
:100D100008ED00E010ED00E04FF000004A490860E7
:100D200001F10401086001F10401086001F104010E
:100D3000086046484649086070474FF00001424944
:100D40008279002A40D00A461268036822EA030228
:100D50000B461A6001F104021268036822EA0302DA
:100D600001F104031A60027911440A68036842EA37
:100D700003020A60374A1268036822EA0302354B0D
:100D80001A6003F104021268036822EA0302324B7C
:100D90001A604279102A0ED12E4A1268036842EA7C
:100DA00003022C4B1A602C4A1268036842EA0302C1
:100DB000294B1A600FE02449427911440A680368FC
:100DC00042EA03020A6006E0027911440A680368F5
:100DD00022EA03020A6070474FF0000101600171CE
:100DE0004FF00C0141714FF00001817170471B49B8
:100DF000096841EA0001194A1160704701464FF045
:100E00000000134A12680A4202D04FF0010001E0CC
:100E10004FF0000070470E490860704701464FF0E0
:100E200000000246084B1B6803EA0102084B1B68DE
:100E30000B4203D012B14FF0010001E04FF000006F
:100E4000704703490860704700040140FFFF0F002E
:100E500014040140080401400C0401401004014046
:100E600010B50446DE48844208D10121042000F078
:100E7000B5FD0021042000F0B1FD46E0D9488442D0
:100E800008D10121082000F0A9FD0021082000F070
:100E9000A5FD3AE0D448844208D10121102000F099
:100EA0009DFD0021102000F099FD2EE0CF488442E6
:100EB00008D10121202000F091FD0021202000F028
:100EC0008DFD22E0CA48844208D10121402000F073
:100ED00085FD0021402000F081FD16E0C5488442D8
:100EE00008D10121802000F079FD0021802000F050
:100EF00075FD0AE0C048844207D10121801500F049
:100F00006DFD0021A01500F069FD10BD10B5012197
:100F1000084600F063FD0021012000F05FFD10BDD8
:100F20002DE9F04102464FF000052E4628460346C3
:100F30000446074691F803C00CF00F0591F803C072
:100F40001CF0100F03D091F802C04CEA0505B1F86F
:100F500000C01CF0FF0F35D014684FF000002EE0E9
:100F60004FF0010C0CFA00F3B1F800C00CEA0306D4
:100F70009E4222D14FEA80034FF00F0C0CFA03F788
:100F800024EA070405FA03FC4CEA040491F803C0C0
:100F9000BCF1280F06D14FF0010C0CFA00FCC2F88E
:100FA00014C00AE091F803C0BCF1480F05D14FF01E
:100FB000010C0CFA00FCC2F810C000F10100082876
:100FC000CED31460B1F800C0BCF1FF0F38DD546817
:100FD0004FF0000031E000F1080C4FF0010808FA72
:100FE0000CF3B1F800C00CEA03069E4223D14FEA8D
:100FF00080034FF00F0C0CFA03F724EA070405FAFC
:1010000003FC4CEA040491F803C0BCF1280F05D19D
:1010100000F1080C08FA0CF8C2F8148091F803C02B
:10102000BCF1480F07D100F1080C4FF0010808FA95
:101030000CF8C2F8108000F101000828CBD35460EE
:10104000BDE8F0814FF6FF7101804FF00201817021
:101050004FF00401C170704702464FF000009368E2
:101060000B4202D04FF0010001E04FF0000070474A
:101070000146886880B2704702464FF00000D3688E
:101080000B4202D04FF0010001E04FF0000070472A
:101090000146C86880B2704701617047416170477E
:1010A0000AB1016100E041617047C16070474FF4CF
:1010B000803242EA010282618161826182698269D1
:1010C000704702464FF000004C4B18684FF6807393
:1010D00000EA030040EA021040EA0100474B1860B2
:1010E00070474749C8617047F0B50A464FF00003A2
:1010F0001C4619460D4600F00046B6F1004F02D1DD
:101100003E4EF16901E03D4E7168C0F3034583B284
:1011100000F44016B6F5401F08D121F07061374E3B
:10112000766826F07066354F7E6017E000F4801612
:10113000B6F5801F08D14FF0030606FA05F421EA40
:10114000040141F0706109E04FEA50564FEA06167B
:1011500003FA06F621EA060141F070613AB14FEA5E
:1011600050564FEA061603FA06F646EA010100F069
:101170000046B6F1004F02D1204EF16101E01F4E52
:101180007160F0BD30B54FF000024FEA81734FEA55
:1011900013744FF00F0303FA04F21A4B4FEAA10441
:1011A00053F8243023EA0203164C4FEAA10544F811
:1011B000253023464FEAA10453F824304FEA8174C6
:1011C0004FEA147400FA04F443EA04030D4C4FEAA6
:1011D000A10544F8253030BD0B4908607047000078
:1011E00000080140000C01400010014000140140C3
:1011F00000180140001C0140002001400000014097
:101200000000204208000140DC00204210B50446E6
:10121000FB48844209D10121480500F0EEFB002182
:101220004FF4001000F0E9FB08E00121880500F010
:10123000E4FB00214FF4800000F0DFFB10BD2DE93E
:10124000F04385B004460D464FF00006B1464FF01E
:101250000407DFF8B083A6884FF6C07006EA0006E0
:10126000684600F022FBDDF80880E748B8FBF0F0A4
:101270001FFA80F946EA0906A68020884FF6FE711B
:1012800000EA010020804FF00006E049286888420B
:101290000FD828684FEA4000B8FBF0F087B2042F5F
:1012A00001DA4FF0040746EA070609F1010020843D
:1012B00029E0E888A0F53F41FF3906D1286800EB16
:1012C0004000B8FBF0F087B209E0286800EBC001ED
:1012D00001EB0010B8FBF0F087B247F48047380507
:1012E000000D01D147F0010747F4004040EA06062F
:1012F0004FF4967009FB00F04FF47A7190FBF1F017
:1013000000F101002084A683208840F001002080A5
:1013100026884FF6F53006EA0006A888698940EA73
:10132000010040EA06062680A889298940EA0100D2
:10133000208105B0BDE8F08341F2883101604FF0B3
:10134000000181804BF6FF71C1804FF000010181E7
:1013500041814FF480418181704721B1028842F080
:101360000102028005E002884FF6FE7302EA0302E2
:101370000280704721B1828842F40062828005E0D9
:1013800082884FF2FF7302EA03028280704721B124
:10139000828842F48052828005E082884EF6FF7394
:1013A00002EA03028280704721B1028842F480720F
:1013B000028005E002884FF6FF6302EA0302028022
:1013C000704721B1028842F40072028005E0028871
:1013D0004FF6FF5302EA03020280704721B10288F0
:1013E00042F48062028005E002884FF6FF3302EA91
:1013F0000302028070470A464FF0000181894FF6D0
:10140000017301EA030102F0FE0343EA0101818155
:10141000704721B1828942F00102828105E0828910
:101420004FF6FE7302EA03028281704721B10288FF
:1014300042F04002028005E002884FF6BF7302EAE4
:1014400003020280704710B522B1838843EA01038A
:10145000838006E083886FEA0104A4B203EA0403F0
:10146000838010BD018270470146088AC0B2704770
:1014700012B141F0010103E04FF6FE7301EA0301EE
:101480000182704702464FF0000313460B44188850
:10149000704721B1028842F40042028003E00288D2
:1014A000C2F30E0202807047B1F5006F04D10288CA
:1014B00042F40062028005E002884FF2FF7302EA04
:1014C000030202807047B1F5005F04D1028842F444
:1014D0000052028005E002884DF6FF7302EA030223
:1014E0000280704721B1028842F48052028005E0F8
:1014F00002884EF6FF7302EA030202807047B1F5DC
:10150000006F04D1028842F40062028005E0028884
:101510004FF2FF7302EA03020280704721B1028892
:1015200042F02002028005E002884FF6DF7302EAF3
:101530000302028070470146088B4FEA2020704763
:1015400021B1028842F01002028005E002884FF6C5
:10155000EF7302EA03020280704721B9028842F069
:101560008002028005E002884FF67F7302EA0302E0
:1015700002807047B1F5804F06D0828B4BF6FF7327
:1015800002EA0302828303E0828B42F48042828378
:10159000704770B502464FF00004254623461846B2
:1015A000958A138B4FEA034345EA030626F07F44EE
:1015B00004EA01068E4202D14FF0010001E04FF033
:1015C000000070BD10B501464FF000000346024612
:1015D0008B8A0A8B4FEA024243EA020424F07F40DE
:1015E00010BD30B503464FF00000044602461A46CF
:1015F0004FEA117421F07F4154B102F114020BE063
:101600000054004000127A0040420F00A086010002
:101610004FEA114102F1180215680D4202D04FF055
:10162000010001E04FF0000030BD4FF0000221F05A
:101630007F426FEA02038382704730B502464FF063
:1016400000000346948801F0E06504EA154321F0A8
:101650007F41948A0C4203D013B14FF0010001E0A6
:101660004FF0000030BD4FF0000221F07F426FEAE2
:101670000203838270470000F748006840F00100D1
:10168000F549086008464068F44900EA0100F2495B
:10169000486008460068F24900EA0100EE49086027
:1016A0000846006820F4802008600846406820F45E
:1016B000FE0048604FF41F0088607047E6490968E3
:1016C00021F48031E44A11601146096821F4802137
:1016D0001160B0F5803F03D0B0F5802F0ED106E049
:1016E000DD49096841F48031DB4A116007E0DA49DD
:1016F000096841F4A021D84A116000E000BF00BF92
:10170000704710B501464FF00002134610464FEAED
:101710006112012A02D1D04C236806E0022A02D1CC
:10172000CD4C236A01E0CC4C636A01F01F024FF0FC
:10173000010404FA02F41C4202D04FF0010001E05F
:101740004FF0000010BD70B54FF00004254626464E
:1017500000BF3120FFF7D5FF064604F10104B4F5C0
:10176000A06F01D0002EF4D03120FFF7CAFF10B1D6
:101770004FF0010501E04FF00005284670BD01461D
:101780004FF00000B44A106820F0F80040EAC100B1
:1017900010607047B3490860704702464FF0000080
:1017A000AD4B586820F47C1042EA010343EA000084
:1017B000A94B58607047AB490866704701464FF027
:1017C0000000A54A506820F0030040EA0100506084
:1017D0007047A148406800F00C00704701464FF088
:1017E00000009D4A506820F0F00040EA010050607F
:1017F000704701464FF00000974A506820F4E060BF
:1018000040EA01005060704701464FF00000924AE4
:10181000506820F4605040EAC1005060704731B118
:101820008D4A527A42EA00028B4B5A7208E08A4A89
:10183000527A6FEA0003DBB202EA0302864B5A7265
:10184000704789490860704701464FF00000824A9E
:10185000506820F4404040EA0100506070474FF06B
:101860000001824A11707C4A82F82010012802D0BF
:1018700004280AD104E04FF001017C4A117005E010
:101880004FF00501794A117000E000BF00BF7047BA
:101890007749086070477049096A41EA00016E4A59
:1018A0001162704773490860704730B54FF000010E
:1018B0000A460C460B46684D6D6805F00C0121B1D7
:1018C000042905D0082927D105E06B4D056026E0E5
:1018D000694D056023E0604D6D6805F470125E4D42
:1018E0006D6805F480344FF0020505EB924224B98F
:1018F000624D02FB05F505600DE0574D6D6815F46E
:10190000003F04D05D4D02FB05F5056003E05A4D34
:1019100002FB05F5056002E0574D056000BF00BF02
:101920004D4D6D6805F0F0014FEA1111544D6B5C9F
:10193000056825FA03F54560474D6D6805F4E061DB
:101940004FEA11214E4D6B5C456825FA03F5856021
:10195000414D6D6805F460514FEAD121484D6B5CF3
:10196000456825FA03F5C5603B4D6D6805F44041B7
:101970004FEA9131434D6B5CC568B5FBF3F50561EA
:1019800030BD31B1344A526942EA0002324B5A61E9
:1019900005E0314A526922EA00022F4B5A61704732
:1019A00031B12D4A926942EA00022B4B9A6105E05F
:1019B000294A926922EA0002274B9A61704731B1A5
:1019C000254AD26942EA0002234BDA6105E0224A45
:1019D000D26922EA0002204BDA61704731B11E4A17
:1019E000D26842EA00021C4BDA6005E01A4AD2686B
:1019F00022EA0002184BDA60704731B1164A1269C8
:101A000042EA0002144B1A6105E0134A126922EA05
:101A10000002114B1A6170471B4908607047114959
:101A2000C86470470C49C87170470B48406A40F061
:101A3000807009494862704701464FF00000064A2D
:101A400092680A4202D04FF0010001E04FF000001E
:101A50007047014988727047001002400000FFF88B
:101A6000FFFFF6FE00004242D80042422010024032
:101A7000800442423C04424200127A0000093D00C8
:101A800061000020710000204004424210B504466D
:101A9000FE48844208D10121C014FFF79FFF0021B6
:101AA000E014FFF79BFFC4E0B4F1804F08D101219F
:101AB0000846FFF7A2FF00210120FFF79EFFB8E0D4
:101AC000F348844208D101210220FFF796FF00214C
:101AD0000220FFF792FFACE0EE48844208D10121DA
:101AE0000420FFF78AFF00210420FFF786FFA0E013
:101AF000E948844208D101210820FFF77EFF002138
:101B00000820FFF77AFF94E0E448844208D10121DD
:101B10001020FFF772FF00211020FFF76EFF88E012
:101B2000DF48844208D101212020FFF766FF002111
:101B30002020FFF762FF7CE0DA48844208D10121CF
:101B40004014FFF74BFF00216014FFF747FF70E0E0
:101B5000D548844209D10121C804FFF73FFF002185
:101B60004FF40020FFF73AFF63E0D048844209D1E8
:101B700001210805FFF732FF00214FF48010FFF725
:101B80002DFF56E0CA48844209D101214805FFF7DC
:101B900025FF00214FF40010FFF720FF49E0C54862
:101BA000844208D101214020FFF727FF0021402077
:101BB000FFF723FF3DE0C048844208D10121802087
:101BC000FFF71BFF00218020FFF717FF31E0BB4824
:101BD000844208D101218015FFF70FFF0021A015D5
:101BE000FFF70BFF25E0B648844209D10121080424
:101BF000FFF7F4FE00214FF48030FFF7EFFE18E00E
:101C0000B048844209D101214804FFF7E7FE0021D2
:101C10004FF40030FFF7E2FE0BE0AB48844208D1FE
:101C200001218804FFF7DAFE00214FF48020FFF73E
:101C3000D5FE10BD4FF000020288944B98420ED0A2
:101C4000984B98420BD0B0F1804F08D0904B9842FF
:101C500005D0904B984202D08F4B984206D14FF658
:101C60008F7302EA03024B8843EA02028B4B9842CD
:101C700009D08B4B984206D04FF6FF4302EA03028D
:101C8000CB8843EA020202808B8883850B88038518
:101C90007E4B98420BD0834B984208D0884B984299
:101CA00005D0884B984202D0874B984201D10B7ADD
:101CB00003864FF001038382704770B54FF0000434
:101CC00022461346058C4FF6FE7605EA0605058486
:101CD000028C8388048B4FF68F7504EA05044FF657
:101CE000FC7504EA05040D8845EA04044FF6FD7509
:101CF00002EA05020D8945EA02024D8845EA020220
:101D0000624DA8420BD0674DA84208D06C4DA84246
:101D100005D06C4DA84202D06B4DA8421BD14FF6A6
:101D2000F77502EA05024D8945EA02024FF6FB7596
:101D300002EA05028D8845EA02024FF6FF6503EAD2
:101D400005034FF6FF5503EA05038D8945EA0303B2
:101D5000CD8945EA030383800483CD888586028488
:101D600070BD70B54FF0000422461346058C4FF647
:101D7000EF7605EA06050584028C8388048B48F615
:101D8000FF7504EA05044FF6FF4504EA05040D88D3
:101D90004FEA056544EA15444FF6DF7502EA05028D
:101DA0000D894FEA055542EA15424D884FEA05551F
:101DB00042EA1542354DA84202D03A4DA84223D1FD
:101DC0004FF67F7502EA05024D894FEA055542EA52
:101DD00015424FF6BF7502EA05028D884FEA055598
:101DE00042EA15424FF6FF3503EA05034FF2FF754D
:101DF00003EA05038D894FEA854543EA1543CD89FA
:101E00004FEA854543EA154383800483CD880587DF
:101E1000028470BD70B54FF0000422461346058C55
:101E20004FF6FF6605EA06050584028C8388848BDD
:101E30004FF68F7504EA05044FF6FC7504EA0504B5
:101E40000D8845EA04044FF6FF5502EA05020D89A4
:101E50004FEA056542EA15424D884FEA056542EAB8
:101E600015420A4DA84202D00E4DA84244D14FF26D
:101E7000FF7502EA05024D894FEA056542EA1542FF
:101E80004FF6FF3502EA05028D881FE0002C014065
:101E90000004004000080040000C0040001000401A
:101EA0000014004000340140004C0140005001404B
:101EB0000054014000180040001C00400020004079
:101EC0000040014000440140004801404FEA0565E0
:101ED00042EA15424EF6FF7503EA05034DF6FF751B
:101EE00003EA05038D894FEA055543EA1543CD8979
:101EF0004FEA055543EA154383808483CD8885875F
:101F0000028470BD70B54FF0000213461446058C74
:101F10004EF6FF7605EA06050584038C8488828BDD
:101F200048F6FF7502EA05024FF6FF4502EA050290
:101F30000D884FEA056542EA15424DF6FF7503EA42
:101F400005030D894FEA057543EA15434D884FEAAD
:101F5000057543EA1543FB4DA84202D0FA4DA8424D
:101F600008D14BF6FF7504EA05048D894FEA8555C3
:101F700044EA154484808283CD88A0F840500384CD
:101F800070BD828B4FF2FF3302EA03028283828BA1
:101F90004FEA016342EA134282837047F0B50C4670
:101FA00015464FF0000211460E46078C4EF6FF7C98
:101FB00007EA0C070784828B018C4FEA04774FEA0B
:101FC000174640F6FF4702EA07024FEA056742EA72
:101FD00017424FEA037742EA1742DA4FB8420ED06F
:101FE000D94FB8420BD0B0F1804F08D0D74FB8428C
:101FF00005D0D74FB84202D0D64FB84208D14DF6DF
:10200000FF7701EA070146F4805747EA010107E03C
:1020100047F6FF5701EA070144F4805747EA0101F8
:1020200082830184F0BD828B4FF6F37302EA0302D0
:102030008283828B42EA010282837047F0B50C46AC
:1020400015464FF0000211460E46078C4FF6FF6C06
:1020500007EA0C070784828B018C4FEA04674FEA7A
:1020600017464FF60C7702EA07024FEA035745EA94
:10207000174747EA0202B34FB8420ED0B24FB842F8
:102080000BD0B0F1804F08D0B04FB84205D0B04F60
:10209000B84202D0AF4FB84208D14FF6FF5701EA1D
:1020A000070146F4807747EA010107E04FF2FF5746
:1020B00001EA070144F4807747EA01018283018441
:1020C000F0BD028B4FF2FF3302EA03020283028B60
:1020D0004FEA016342EA134202837047F0B50C46AF
:1020E00015464FF0000211460E46078C4FF6EF7C66
:1020F00007EA0C070784028B018C4FEA04574FEA6A
:10210000174640F6FF4702EA07024FEA037742EA22
:1021100017424FEA056742EA17428A4FB8420ED08B
:10212000894FB8420BD0B0F1804F08D0874FB842EA
:1021300005D0874FB84202D0864FB84208D14FF63B
:10214000DF7701EA070146F0100747EA010107E0DF
:102150004FF65F7701EA070144F0100747EA0101F3
:1021600002830184F0BD028B4FF6F37302EA03028F
:102170000283028B42EA010202837047F0B50C46EB
:1021800015464FF000021146068C4FF6FE7706EA20
:1021900007060684028B018C4FF60C7602EA0602D3
:1021A0004FEA035645EA164646EA0202654EB04239
:1021B0000ED0654EB0420BD0B0F1804F08D0634EC8
:1021C000B04205D0624EB04202D0624EB04208D159
:1021D0004FF6FD7601EA060144F0010646EA0101E8
:1021E00007E04FF6F57601EA060144F0010646EAFB
:1021F000010102830184F0BD70B505460C465148CB
:1022000085420ED0504885420BD0B5F1804F08D0A2
:102210004E48854205D04E48854202D04D48854201
:1022200000D100E000BF208850B92389A2886188CE
:102230002846FFF7A3FFE1882846FFF794FF25E033
:10224000208804280AD12389A28861882846FFF7BC
:1022500045FFE1882846FFF734FF17E0208808286B
:102260000AD12389A28861882846FFF7E7FEE18822
:102270002846FFF7D8FE09E02389A288618828460E
:10228000FFF78CFEE1882846FFF77BFE70BD2DE945
:10229000F04105460C464FF000064FF001076088FC
:1022A00010B94FF0020601E04FF00006A0880128A7
:1022B00002D14FF0020701E04FF001072088A0B9DA
:1022C0002389A28861882846FFF758FFE1882846BD
:1022D000FFF749FF23893A4631462846FFF7FEFEBD
:1022E000E1882846FFF7EDFE13E02389A288618884
:1022F0002846FFF7F3FEE1882846FFF7E2FE238930
:102300003A4631462846FFF739FFE1882846FFF76D
:102310002AFFBDE8F0810A884B8842EA03028B88D5
:1023200042EA0302CB8842EA03020B8942EA030233
:102330004B8942EA03028B8942EA0302A0F8442057
:1023400070470000002C01400034014000040040B0
:1023500000080040000C00404FF6FF7181804FF0F4
:1023600000010180C1804180017270474FF000017F
:10237000018041808180C180018141818181C18151
:1023800070474FF00001018041804FF001018180D2
:102390004FF00001C180018170474FF000010180C2
:1023A00041808180C180018141818181704721B15B
:1023B000028842F00102028005E002884FF6FE73B7
:1023C00002EA03020280704731B1B0F8442042F4BF
:1023D0000042A0F8442005E0B0F84420C2F30E0209
:1023E000A0F84420704710B522B1838943EA010365
:1023F000838106E083896FEA0104A4B203EA04033F
:10240000838110BD8182704741EA0203A0F8483001
:10241000704710B522B1838943EA0103838106E046
:1024200083896FEA0104A4B203EA0403838110BD27
:1024300001894FF6F87201EA0201018170470A46EC
:102440004FF0000101894FF68F7301EA030141EA61
:1024500002010181704730B504460D4629462046E9
:10246000FFF7EDFF208940F00700208130BD2DE906
:10247000F04104460D4616461F46602D06D13B46E8
:10248000012231462046FFF729FE05E03B460122A6
:1024900031462046FFF772FE29462046FFF7CFFF60
:1024A000208940F007002081BDE8F08130B50C465E
:1024B0004FF000010189C9B24FEA036542EA1545B0
:1024C00045EA040545EA0101018130BD2DE9F041ED
:1024D00005460E46174698464FF0000443463A46D6
:1024E00031462846FFF7E2FF2C894FF6F87004EAE0
:1024F000000444F007044FF68F7004EA000444F02F
:1025000070042C81BDE8F081F0B504460D461646F6
:102510001F463B46324629462046FFF7C7FF208923
:1025200040F480402081F0BD0185828270470A46D8
:102530004FF0000101884FF68F7301EA030141EA71
:10254000020101807047F0B50C4615461E464FF05B
:1025500000010A460B460189028B038C4FF6F8777F
:1025600001EA070141EA04014FF6FC4702EA0702CB
:1025700040F2011742EA07024FF6DD7703EA07034C
:102580004FEA065745EA174747EA030301810283EA
:102590000384F0BD0A464FF00001018B4FF68F73A4
:1025A00001EA030141EA0201018370470A464FF044
:1025B0000001018B48F6FF7301EA03014FEA026351
:1025C00041EA1341018370470A464FF00001818BB5
:1025D0004FF68F7301EA030141EA020181837047DC
:1025E0000A464FF00001818B48F6FF7301EA0301B0
:1025F0004FEA026341EA13418183704721B10288A7
:1026000042F08002028005E002884FF67F7302EA02
:1026100003020280704721B1828842F00402828066
:1026200005E082884FF6FB7302EA0302828070475E
:1026300021B1828842F00802828005E082884FF64C
:10264000F77302EA03028280704721B1828842F068
:102650000102828005E082884FF6FE7302EA0302DF
:10266000828070470A464FF00001018B4FF6F773E6
:1026700001EA030141EA0201018370470A464FF073
:102680000001018B4FF2FF7301EA03014FEA02637D
:1026900041EA1341018370470A464FF00001818BE4
:1026A0004FF6F77301EA030141EA020181837047A3
:1026B0000A464FF00001818B4FF2FF7301EA0301DC
:1026C0004FEA026341EA1341818370470A464FF0A3
:1026D0000001018B4FF6FB7301EA030141EA02019D
:1026E000018370470A464FF00001018B4FF6FF331C
:1026F00001EA03014FEA026341EA13410183704793
:102700000A464FF00001818B4FF6FB7301EA03018B
:1027100041EA0201818370470A464FF00001818B34
:102720004FF6FF3301EA03014FEA026341EA134126
:10273000818370470A464FF00001018B4FF67F738B
:1027400001EA030141EA0201018370470A464FF0A2
:102750000001018BC1F30E014FEA026341EA13410C
:10276000018370470A464FF00001818B4FF67F735B
:1027700001EA030141EA0201818370470A464FF0F2
:102780000001818BC1F30E014FEA026341EA13415C
:10279000818370470A464FF00001018C4FF6FD73AC
:1027A00001EA030141EA0201018470470A464FF041
:1027B0000001018C4FF6F77301EA030141EA0201BF
:1027C000018470470A464FF00001018C4FF6DF7319
:1027D00001EA03014FEA025341EA134101847047C1
:1027E0000A464FF00001018C4FF67F7301EA0301A6
:1027F0004FEA025341EA1341018470470A464FF001
:102800000001018C4FF6FF5301EA03014FEA026316
:1028100041EA1341018470470A464FF00001018CE0
:102820004FF2FF7301EA03014FEA026341EA1341E9
:10283000018470470A464FF00001018C4DF6FF738A
:1028400001EA03014FEA027341EA13410184704730
:1028500030B54FF000034FF0010404FA01F4A3B2C5
:10286000048C6FEA0305ADB204EA05040484048C09
:1028700002FA01F5ADB244EA0504048430BD30B576
:102880004FF000034FF0040404FA01F4A3B2048CE7
:102890006FEA0305ADB204EA05040484048C02FA6D
:1028A00001F5ADB244EA0504048430BD70B50346B9
:1028B0004FF000000446184600F118004FF00105E3
:1028C00005FA01F5ACB21D8C6FEA0406B6B205EA52
:1028D00006051D8409B108290AD100EB61000568CD
:1028E00025F070050560056845EA020505600EE003
:1028F000A1F10405ADB200EB6500056825F4E045E3
:10290000056005684FEA026645EA1645056070BD38
:1029100021B1028842F00202028005E002884FF6EF
:10292000FD7302EA03020280704721B1028842F07F
:102930000402028005E002884FF6FB7302EA0302FC
:102940000280704721B1828842F08002828005E0D7
:1029500082884FF67F7302EA030282807047028802
:102960004FF6F77302EA03020280028842EA01028C
:102970000280704782884FF68F7302EA03028280DA
:10298000828842EA01028280704702894FF6F8731A
:1029900002EA03020281028942EA010202817047CF
:1029A00002894FF67F7302EA03020281028942EA3A
:1029B000010202817047818470478185704781865A
:1029C00070470187704781877047A0F840107047B3
:1029D00002884FF6FF4302EA03020280028842EABD
:1029E0000102028070470146888E70470146088FB9
:1029F00070470146888F70470146B1F84000704724
:102A00000146888C70470146088D704702464FF09A
:102A10000000138A0B4202D04FF0010001E04FF09A
:102A2000000070476FEA01020282704730B502462B
:102A30004FF0000003460446158A05EA0103958914
:102A400005EA01041BB114B14FF0010001E04FF0A1
:102A5000000030BD6FEA01020282704710B50446E3
:102A6000F848844209D101218803FEF7B7FF00210D
:102A70004FF48040FEF7B2FF32E0F348844209D1C0
:102A800001214804FEF7B9FF00214FF40030FEF7A2
:102A9000B4FF25E0ED48844209D101218804FEF706
:102AA000ACFF00214FF48020FEF7A7FF18E0E848B4
:102AB000844209D10121C804FEF79FFF00214FF491
:102AC0000020FEF79AFF0BE0E248844208D1012182
:102AD0000805FEF792FF00214FF48010FEF78DFFEE
:102AE00010BD2DE9F04786B005460E464FF00004B4
:102AF000A24600BFA1462746B08900B100BF2F46BD
:102B00002C8A4CF6FF7004EA0004F08840EA0404C2
:102B10002C82AC894EF6F31004EA0004B0883189A7
:102B200040EA0100718940EA010040EA0404AC81F6
:102B3000AC8A4FF6FF4004EA0004B08940EA04047E
:102B4000AC8201A8FEF7B1FEBE48874202D1DDF893
:102B500010A001E0DDF80CA0A88910F4004F09D006
:102B60000AEBCA0000EB0A1031684FEA4101B0FBE2
:102B7000F1F808E00AEBCA0000EB0A1031684FEAEE
:102B80008101B0FBF1F84FF06400B8FBF0F04FEAC0
:102B900000144FEA14104FF0640101FB1089A8895A
:102BA00010F4004F0AD04FF0320000EBC900B0FB28
:102BB000F1F000F0070040EA04040BE04FF03200AF
:102BC00000EB09104FF06401B0FBF1F000F00F00D2
:102BD00040EA04042C8106B0BDE8F0874FF416519A
:102BE00001604FF000018180C18001814FF00C0134
:102BF00041814FF000018181704710B502464FF0CE
:102C00000000108A4FF2FF0300EA03000B884C8893
:102C100043EA04038C8843EA0403CC8843EA0403B0
:102C200043EA0000108210BD4FF000010180418096
:102C30008180C180704721B1828942F40052828133
:102C400005E082894DF6FF7302EA03028281704734
:102C5000F0B503464FF00004264625462046A1F570
:102C600010676A3F00D100BF1846C1F3421401F05B
:102C70001F064FF0010707FA06F5012C02D100F1FB
:102C80000C0006E0022C02D100F1100001E000F17E
:102C9000140022B1076847EA0507076003E00768E8
:102CA00027EA05070760F0BD10B522B1838A43EA21
:102CB0000103838206E0838A6FEA0104A4B203EA77
:102CC0000403838210BD028A4FF6F07302EA030206
:102CD0000282028A42EA01020282704782894FF22E
:102CE000FF7302EA03028281828942EA0102828141
:102CF000704721B1828942F00202828105E0828917
:102D00004FF6FD7302EA030282817047028A4FF692
:102D1000DF7302EA03020282028A42EA01020282AD
:102D2000704721B1028A42F48042028205E0028AA1
:102D30004BF6FF7302EA030202827047C1F30802F6
:102D40008280704701468888C0F3080070478189F7
:102D500041F0010181817047028BD2B20283028B64
:102D600042EA012202837047028B02F47F4202830F
:102D7000028B42EA01020283704721B1828A42F04B
:102D80002002828205E0828A4FF6DF7302EA0302A4
:102D90008282704721B1828A42F01002828205E06D
:102DA000828A4FF6EF7302EA03028282704721B1F2
:102DB000828A42F00802828205E0828A4FF6F77327
:102DC00002EA03028282704721B1828942F4004202
:102DD000828103E08289C2F30E028281704721B1B1
:102DE000828A42F40062828205E0828A4FF2FF7397
:102DF00002EA030282827047828A4FF6FB7302EA7C
:102E000003028282828A42EA01028282704721B1F1
:102E1000828A42F00202828205E0828A4FF6FD73C6
:102E200002EA03028282704702464FF00000B1F5C9
:102E3000007F00D100BF13880B420DD04FF001007E
:102E40000CE0000000380140004400400048004011
:102E5000004C0040005000404FF00000704701F46B
:102E60000072B2F5007F00D100BF6FEA010202805C
:102E7000704770B502464FF0000423461D461846C1
:102E8000A1F510666A3E00D100BFC1F3421501F002
:102E90001F034FF0010606FA03F3012D03D19689B3
:102EA00006EA030308E0022D03D1168A06EA0303AB
:102EB00002E0968A06EA03034FEA21244FF0010656
:102EC00006FA04F4168806EA04041BB114B14FF0A4
:102ED000010001E04FF0000070BD10B54FF000029E
:102EE0001346A1F510646A3C00D100BF4FEA2122CD
:102EF0004FF0010404FA02F4A3B26FEA0304048061
:102F000010BD000010B56FF00400FDF7E2FE2E4882
:102F100000682E49B0FBF1F02D4908700846007892
:102F20004FF47A7100FB01F02A49086010BD014698
:102F3000274A127801FB02F24FF0E0235A614FF06A
:102F400000029A611A46126942F001021A6100BF3A
:102F50004FF0E022106910F0010F02D010F4803F12
:102F6000F6D04FF0E022126922F001024FF0E02388
:102F70001A614FF000029A6170470146154A1268C3
:102F800001FB02F24FF0E0235A614FF000029A6118
:102F90001A46126942F001021A6100BF4FF0E022A6
:102FA000106910F0010F02D010F4803FF6D04FF0FE
:102FB000E022126922F001024FF0E0231A614FF083
:102FC00000029A61704700000800002000127A0099
:102FD000780000207C00002010B54FF4A060FDF7C1
:102FE0001BFE10BD014600BF704770B504460D467C
:102FF00000BF4021FE48FFF717FF0028F9D0E1B2DB
:10300000FB48FFF79BFE204670BD10B586B0044616
:103010004FF0010144F20400FEF7C2FCF448FFF750
:103020001DFD4FF40070ADF814004FF003008DF853
:1030300016004FF018008DF8170005A9ED48FDF7B0
:103040006FFF4FF48060ADF814004FF004008DF86E
:10305000170005A9E748FDF763FF01944FF0000052
:10306000ADF80800ADF80A00ADF80C00ADF810009E
:103070004FF00C00ADF80E0001A9DD48FFF731FD5F
:103080004FF025008DF800004FF003008DF801008F
:103090008DF802004FF001008DF803006846FDF73F
:1030A000C1FD012240F22551D148FFF7D1FD012198
:1030B000CF48FFF7C0FD06B010BD2DE9F04387B043
:1030C00006460C4617461D46DDE90E894FF0010104
:1030D0004FF40030FEF773FC01210420FEF760FC82
:1030E000C548FFF7BBFC4FF00400ADF818004FF0E7
:1030F00003008DF81A004FF018008DF81B0006A988
:10310000BC48FDF70DFF4FF00800ADF818004FF078
:1031100004008DF81B0006A9B648FDF701FF0296D2
:103120004FF00000ADF80C00ADF80E00ADF8100047
:10313000ADF814004FF00C00ADF8120002A9AE4833
:10314000FFF7CFFCAC48AD490860084644604FF03B
:103150000000886008460761C0F80C808561C0F8EF
:1031600014904FF000000862C861084685624FF075
:1031700000004862C862C4B14FF026008DF8040018
:103180004FF003008DF805004FF004008DF80600A5
:103190004FF001008DF8070001A8FDF743FD012263
:1031A00040F225519448FFF753FD01219248FFF763
:1031B00042FD07B0BDE8F08370B504460D46606A75
:1031C00068B1E06A281A052809D9606830B16268D8
:1031D000616A206990474FF000006062E56270BD4F
:1031E00010B5044621468548FFF7E6FF214684488E
:1031F000FFF7E2FF10BD10B5044640F225512068EC
:10320000FFF737FEF0B12068FFF79CFD626A216985
:103210008854606A401C6062A169884202DB4FF0FA
:1032200000006062D4E90901884208D1606830B1C9
:103230006268616A206990474FF000006062FDF7A4
:103240004BF8E06240F227712068FFF712FE00B3EE
:10325000D4E9071088420CD1002240F2277120687F
:10326000FFF7F6FC012240F226612068FFF7F0FC30
:1032700033E0236AE268D15C2068FFF75FFD206AD3
:10328000401C20626169884227DB4FF00000206209
:1032900023E040F226612068FFF7EBFDE8B1D4E9B6
:1032A000071088420AD1002240F226612068FFF709
:1032B000CFFCA06888B1A06880470EE0236AE2686E
:1032C000D15C2068FFF73AFD206A401C20626169EA
:1032D000884202DB4FF00000206210BD10B5494863
:1032E000FFF789FF10BD10B54448FFF784FF10BDFC
:1032F00010B54348FFF77FFF10BD2DE9F04387B0BD
:1033000006460C4617461D46DDE90E894FF00101C1
:103310004FF48020FEF753FB01210820FEF740FB0D
:103320003948FFF79BFB4FF48060ADF818004FF071
:1033300003008DF81A004FF018008DF81B0006A945
:103340003248FDF7EDFD4FF40060ADF818004FF086
:1033500004008DF81B0006A92C48FDF7E1FD02963C
:103360004FF00000ADF80C00ADF80E00ADF8100005
:10337000ADF814004FF00C00ADF8120002A922487D
:10338000FFF7AFFB20481E490860084644604FF035
:103390000000886008460761C0F80C808561C0F8AD
:1033A00014904FF000000862C861084685624FF033
:1033B00000004862C862B4B14FF027008DF80400E5
:1033C0004FF002008DF805004FF001008DF8060067
:1033D0008DF8070001A8FDF725FC012240F22551D8
:1033E0000948FFF735FC01210748FFF724FC0FE0EF
:1033F000003801400008014000440040901C0020BB
:10340000C01C0020601C002000480040000C01404F
:1034100007B0BDE8F0832DE9F04104460D464FF0BA
:1034200000066069D0B90EE000BF40212068FFF7B8
:10343000FBFC0028F9D029782068FFF77FFC06F113
:10344000010605F1010528780028EDD100BF4021D3
:103450002068FFF7E9FC0028F9D080E04FF0000772
:103460003A464FF028012068FFF7F2FB002240F2B5
:1034700026612068FFF7ECFB002260212068FFF73F
:10348000E7FB00224FF418712068FFF7E1FBD4E955
:103490000701884201D14FF001070122282120684D
:1034A000FFF7D6FB012240F226612068FFF7D0FB30
:1034B000012260212068FFF7CBFB01224FF4187135
:1034C0002068FFF7C5FB00BF287800B93DE02878E9
:1034D000E269E1688854002228212068FFF7B8FBE0
:1034E000002240F226612068FFF7B2FB0022602133
:1034F0002068FFF7ADFB00224FF418712068FFF73A
:10350000A7FBE069401CE0616169884202DB4FF083
:103510000000E061012228212068FFF799FB0122C9
:1035200040F226612068FFF793FB012260212068AA
:10353000FFF78EFB01224FF418712068FFF788FB1C
:1035400005F1010506F10106BEE700BF012F05D117
:10355000012240F227712068FFF77AFB00BF304656
:10356000BDE8F0812DE9F04104460E46154660693C
:10357000D0B90FE0A5F1010085B200BF402120685D
:10358000FFF752FC0028F9D031782068FFF7D6FB0E
:1035900006F10106002DEDD100BF40212068FFF7A4
:1035A00043FC0028F9D07FE04FF0000842464FF07E
:1035B00028012068FFF74CFB002240F226612068BA
:1035C000FFF746FB002260212068FFF741FB002245
:1035D0004FF418712068FFF73BFBD4E907018842DC
:1035E00001D14FF00108012228212068FFF730FBAC
:1035F000012240F226612068FFF72AFB01226021A8
:103600002068FFF725FB01224FF418712068FFF7AF
:103610001FFB4FF000073BE0F05DE269E168885472
:10362000002228212068FFF713FB002240F22661C8
:103630002068FFF70DFB002260212068FFF708FBE0
:1036400000224FF418712068FFF702FBE069401C6C
:10365000E0616169884202DB4FF00000E061012215
:1036600028212068FFF7F4FA012240F22661206841
:10367000FFF7EEFA012260212068FFF7E9FA012244
:103680004FF418712068FFF7E3FA07F1010087B2E1
:10369000AF42C1DBB8F1010F05D1012240F2277121
:1036A0002068FFF7D5FA00BF2846BDE8F08110B5C5
:1036B000044621460E48FFF7AEFE10BD70B5044625
:1036C0000D462A4621460A48FFF74CFF70BD10B54B
:1036D000044621460748FFF79EFE10BD70B504461C
:1036E0000D462A4621460348FFF73CFF70BD000007
:1036F000C01C0020901C00202DE9FF4104460D460F
:1037000016461F46029601958DF80040039772B643
:103710006946214806F030FCA0B962B600BF1FA080
:1037200006F0CAFB80462523424621A12A4800F024
:10373000D1FC2AA1284800F0CDFC00BF002004B035
:10374000BDE8F08162B60120F9E72DE9FF410446AA
:103750000D4616461F4672B669460F4806F041FCF4
:1037600020B962B6002004B0BDE8F0819DF80000E9
:10377000207001982860029830600398386001201A
:10378000F1E705484FF000024FF400510A5042F2B1
:1037900004010A5000BF7047F01C00202E2E5C610F
:1037A00070695C4576656E742E6370700000000071
:1037B000453A6576656E7451756575652E696E510D
:1037C000756575652829204661696C656420696E98
:1037D00020257328256429003A0100200A000000F2
:1037E00038B501214020FEF7DBF800214020FEF72C
:1037F000F5F84FF47040ADF800004FF028008DF858
:1038000003004FF001008DF802006946C148FDF742
:1038100087FB4FF44060ADF800004FF010008DF8CA
:1038200003004FF001008DF802006946B948FDF72A
:1038300077FB01210802FEF7B3F800214FF48070F6
:10384000FEF7CCF84FF00300ADF800004FF0100089
:103850008DF803004FF001008DF802006946AE4874
:10386000FDF75EFB01218020FEF79AF80021802001
:10387000FEF7B4F84FF46040ADF800004FF01000D0
:103880008DF803004FF001008DF802006946A3484F
:10389000FDF746FB01210820FEF782F800210820F1
:1038A000FEF79CF84FF40040ADF800004FF0040024
:1038B0008DF803004FF001008DF80200694698482A
:1038C000FDF72EFB00BF97A006F006FB0446412340
:1038D000224699A1A04800F0FDFBA0A19E4800F05F
:1038E000F9FB00BF4FF440618A48FDF7D5FB032187
:1038F0008948FDF7D1FB4FF460418848FDF7CCFBC8
:10390000012038BD2DE9F04105464FF6FF764FF412
:1039100040618048FDF7C2FB03217F48FDF7BEFBF5
:103920004FF460417D48FDF7B9FB4FF0000416E00D
:103930008B4A02EBC4029188894A52F83400FDF7A1
:10394000ABFB7448FDF794FB00F47047AF4204D121
:10395000834800EBC400867903E004F10104072CDE
:10396000E6D34FF440616B48FDF796FB03216A48AC
:10397000FDF792FB4FF460416848FDF78DFB304640
:10398000BDE8F0812DE9FC414FF020076448FDF7C8
:103990006FFB00F40046002E24D1724800884628B0
:1039A00002D12020BDE8FC810A20FFF7E6FA5C483E
:1039B000FDF75EFB00F40046E6B900BF59A006F033
:1039C0008BFA054668232A4667A1634800F082FB0C
:1039D00062A1614800F07EFB00BF4FF046006149E4
:1039E0000880DFE75F480088462803D14FF02000B9
:1039F0005C49088000BF4748FDF73AFB00F470447B
:103A000058480088844254D0B4F5805F08D0B4F59B
:103A1000005F05D0B4F5804F02D0B4F5004F49D116
:103A20002046FFF76FFF054600BF3EA006F054FAA0
:103A3000804675202B46224653A1CDE9008046489A
:103A400000F048FB45A1444800F044FB00BFA5F549
:103A50007F40FF3813D100BF32A006F03DFA804608
:103A6000772043462A4650A100903B4800F032FBA5
:103A70003AA1394800F02EFB00BF202092E73948D8
:103A80000480B4F5805F02D14E48405D8AE7B4F50A
:103A9000005F02D14C48405D84E7B4F5804F02D10D
:103AA0004A48405D7EE7B4F5004F02D14848405D8A
:103AB00078E72DE02B480088044217D100BF19A0F9
:103AC00006F00AFA054681202B4600902548028818
:103AD00040A1214800F0FEFA20A11F4800F0FAFAA8
:103AE00000BF4FF000001F49088011E000BF0DA08B
:103AF00006F0F2F9054685202B4622463BA10090B0
:103B0000154800F0E7FA15A1134800F0E3FA00BFEA
:103B1000384647E70018014000200140001C0140E2
:103B2000000C01402E2E5C6170695C4B6579626F00
:103B30006172642E63707000493A6B6579626F61DF
:103B4000726420496E69746564282920696E202595
:103B500073282564290000003A0100200A000000B3
:103B600080000020B8000020493A46616E20487568
:103B7000692052657475726E656420696E202573C4
:103B80002825642900000000493A6B65795B30788C
:103B9000253034785D5B307825785D20696E20258E
:103BA0007328256429000000453A4572726F72201F
:103BB000636F6C203078257820696E202573282566
:103BC000642900001CAF000823AF00082AAF0008DA
:103BD00031AF0008493A6B65792030782578207537
:103BE0007020696E2025732825642900573A6D6F6F
:103BF0007265207468616E206F6E65206B65792038
:103C0000697320707265737365642030782578203D
:103C1000696E202573282564290000001CB5D0A1F9
:103C200003C9CDE9000106216846FFF757FD1CBD19
:103C30001CB5CDA103C9CDE9000106216846FFF7F7
:103C40004DFD0222CAA1CD4800F044FA1CBD1CB5AE
:103C5000CBA103C9CDE9000107216846FFF73EFD6E
:103C60001CBD1CB5C8A103C9CDE9000106216846E9
:103C7000FFF734FD1CBD01B582B0C5A103C9CDE974
:103C800000019DF809008DF805009DF808008DF8E9
:103C9000060007216846FFF721FD6420FFF76DF954
:103CA000FFF7DFFF0023BDF9082011460620FFF7CC
:103CB00023FD0023BDF9082011460620FFF71CFD57
:103CC0000EBD01B582B0B2A103C9CDE900019DF8D6
:103CD00009008DF805009DF808008DF80600072101
:103CE0006846FFF7FBFC0EBD38B504460D46082DAF
:103CF0001FD12078A5281CD160785A2819D1A07826
:103D0000052816D1E078812813D12079032810D115
:103D1000607902280DD1A0798DF80100E0798DF845
:103D200000000023BDF9002011460620FFF7E4FC47
:103D30001BE0092D19D12078A52816D160785A28C2
:103D400013D1A078062810D1E07883280DD1E0792E
:103D50008DF80100207A8DF800000023BDF90020C5
:103D600011460720FFF7C8FC00BF38BD1CB504464C
:103D700089A103C9CDE900018DF805404FF0060186
:103D80006846FFF7ABFC1CBD03B583B084A103C933
:103D9000CDE901019DF80D008DF808009DF80C009B
:103DA0008DF809009DF811008DF80A009DF81000AB
:103DB0008DF80B00082101A8FFF790FC05B000BDAD
:103DC00007B584B078A207CA01AB07C39DF81100FC
:103DD0008DF808009DF810008DF809009DF8150079
:103DE0008DF80A009DF814008DF80B009DF819005D
:103DF0008DF80C009DF818008DF80D000A2101A81F
:103E0000FFF76CFC07B000BD03B583B069A207CA19
:103E10008DE807009DF80D008DF804009DF80C005A
:103E20008DF805009DF813008DF806009DF812002E
:103E30008DF807009DF811008DF808009DF810001E
:103E40008DF809000A216846FFF748FC05B000BD5F
:103E50002DE9F74181B00D4616464FF0030000EB07
:103E60004607802F13D300BF55A006F005F8804603
:103E70005C204346324656A10090404800F02AF9A3
:103E80005DA13E4800F026F900BFBDE8FF815B4917
:103E90008F704FF08200C8709DF8050008719DF882
:103EA0000400487101F106044FF000000BE069784E
:103EB000217004F101042978217004F1010405F155
:103EC000020500F10100B042F1DBF81C81B24B4861
:103ED000FFF704FC00BFD8E72DE9F74181B00D469C
:103EE00016464FF0030000EB4607802F13D300BFA8
:103EF00033A005F0C1FF804673204346324634A10B
:103F000000901E4800F0E6F83BA11C4800F0E2F8E3
:103F100000BFBDE8FF8139498F704FF08200C87043
:103F20009DF8050008719DF80400487101F1060430
:103F30004FF000000BE06978217004F1010429784A
:103F4000217004F1010405F1020500F10100B04205
:103F5000F1DBF81C81B22948FFF7C0FB00BFD8E7AE
:103F6000A55A038001100000A55A038002FF00003B
:103F7000426565704F4E3A25642020003A010020CA
:103F8000A55A0480EE5AA500A55A03810302000039
:103F9000A55A048003000000A55A03804F000000CA
:103FA000A55A058200000000A55A05820000000005
:103FB00000000000A55A0782000000000000000079
:103FC0002E2E5C6170695C4C63642E63707000001F
:103FD000453A646973706C6179556E69636F6465A5
:103FE0002825642920746F6F206C6F6E6720696EBE
:103FF00020257328256429000A000000BA0000204B
:1040000070B505460C462046FFF751FB284670BDAB
:104010002DE9F04186B080460D464FF012062C4641
:104020004FF000008DF8170000BF4FF00A0094FB1E
:10403000F0F100FB114707F13000C2B23046A6F1A3
:10404000010601A90A544FF00A0094FBF0F4002C79
:10405000EBD101AA06F1010002EB00014046FFF797
:10406000CFFF06B0BDE8F0812DE9F04186B0804673
:104070000D464FF012062C46002C01DAC4F1000464
:104080004FF000008DF8170000BF4FF00A0094FBBE
:10409000F0F100FB114707F13000C2B23046A6F143
:1040A000010601A90A544FF00A0094FBF0F4002C19
:1040B000EBD1002D05DA4FF02D023046A6F10106B6
:1040C0000A5401AA701C11184046FFF799FF06B068
:1040D000BDE8F0810FB410B5ADF5027D044686A8A9
:1040E000019002A8019A859901F026FC4FF000008A
:1040F000019002A8FFF7DBFA0DF5027D10BC5DF818
:1041000014FB000000B585B001210820FDF748FC34
:1041100001214805FDF753FC4FF01C008DF803000A
:104120004FF0C000ADF800004FF001008DF8020024
:104130006946FE48FCF7F4FE4FF00000ADF80800B9
:104140004FF48060ADF80E00F94801904BF6FF7017
:10415000ADF80A004FF0A000ADF80C004FF480401D
:10416000ADF8100001A9F348FDF769F80121F14805
:10417000FDF7F3F805B000BD2DE9F04106460F4606
:1041800014461D4600BF4FF40031EA48FDF729FAF6
:104190000128F8D00121E748FDF720F90121E54881
:1041A000FDF702F900BFE449E248FDF7F2F9012802
:1041B000F9D10022A021DF48FDF75AF900BFDF49FD
:1041C000DC48FDF7E6F90128F9D107EBC600C1B2DA
:1041D000D848FDF747F900BFD849891ED548FDF7F3
:1041E000D8F90128F8D10FE014F8011BD148FDF7E8
:1041F00039F900BFD149891CCE48FDF7CAF9012819
:10420000F8D1A5F10100C5B2002DEDDC0121C948AE
:10421000FDF7D7F80A20FEF7B0FE0020BDE8F081D8
:104220002DE9F0470646894617461D46C9F10800A4
:10423000C4B2A54206DC2B463A4649463046FFF753
:104240009BFF35E0A5EB04004FEAE07100EB5171F4
:10425000C1F3C708A5EB04004FEAE07100EB517110
:104260004FEAE101A0EBC10101F0FF0A304606F17F
:104270000102D6B223463A464946FFF77DFF27445E
:104280000DE03046721CD6B208233A460021FFF7F3
:1042900073FF07F10807A8F1010000F0FF08B8F16B
:1042A000000FEEDC53463A4600213046FFF764FF2C
:1042B0000020BDE8F08770B504464FF00005A04926
:1042C0009C48FDF7B2F900BF01219A48FDF76CF850
:1042D00014219848FDF7D6F805464FF00002214614
:1042E0009448FDF7C5F814219248FDF7CBF894499E
:1042F0000842E9D093498F48FDF797F970BD2DE941
:10430000F04106460F4614461D4600BF4FF40031EB
:104310008848FDF766F90128F8D001218548FDF7A6
:104320005DF801218348FDF73FF800BF82498148CD
:10433000FDF72FF90128F9D10022A0217D48FDF7D2
:1043400097F800BF7D497B48FDF723F90128F9D193
:1043500007EBC600C1B27748FDF784F800BF774984
:10436000891E7448FDF715F90128F8D1012171481B
:10437000FDF71AF800BF70496E48FDF70AF90128E9
:10438000F9D10122A0216B48FDF772F800BF6A49FC
:10439000491C6848FDF7FDF80128F8D10FE000BF7F
:1043A00065493F316348FDF7F4F80128F8D16148C9
:1043B000FDF75AF804F8010BA5F10100C5B2012D73
:1043C000EDDC00215B48FDF709F800BF5A493F3199
:1043D0005848FDF7DEF80128F8D15648FDF744F8B3
:1043E000207001215348FCF7ECFF01215148FCF7F4
:1043F000F5FF0020BDE8F08100B585B04FF0C000AA
:10440000ADF810004FF003008DF812004FF01C00C3
:104410008DF8130004A94548FCF782FD4FF0000019
:10442000ADF804004BF6FF70ADF806004FF0A000A9
:10443000ADF808004FF48060ADF80A004FF48040FA
:10444000ADF80C003A4800904FF001013E48FCF7EF
:1044500084FF69463C48FCF7F2FE05B000BD70B52C
:10446000044637493848FDF7E0F800BF01213648D7
:10447000FCF79AFF14213448FDF704F805464FF085
:10448000000221463048FCF7F3FF14212E48FCF7C8
:10449000F9FF2B490842E9D02A492B48FDF7C5F816
:1044A00070BD2DE9F0410546884614461E464FF082
:1044B00001012548FCF778FF00BF1F492248FDF79E
:1044C00068F80028F9D0002229461F48FCF7D0FFE1
:1044D00000BF1A491C48FDF75CF80028F9D0414696
:1044E0001948FCF7BFFF00BF1449891C1648FDF7A7
:1044F00050F80028F8D001211348FCF755FF00BF01
:104500000D491148FDF745F80028F9D00122681C33
:10451000C1B20D48FCF7ACFF00BF0749491C0A486F
:10452000FDF737F80028F8D0012E0FE0000C01400D
:10453000A086010000540040010003008200070033
:1045400002000010000400100058004018DD4FF079
:10455000000712E000BF4A494A48FDF71AF8002850
:10456000F9D04848FCF780FF04F8010B01214548C9
:10457000FCF734FF07F10100C7B2701EB842E9DC56
:1045800000BF3F493F48FDF704F80028F9D03D48F7
:10459000FCF76AFF207000213A48FCF71FFF012159
:1045A0003848FCF70EFFBDE8F0812DE9F0470746DB
:1045B0008846154699464E46444600BF012131487B
:1045C000FCF7F2FE00BF2E493F392E48FCF7E1FF11
:1045D0000028F8D039462B48FCF744FF00BF2A4991
:1045E0002848FCF7D6FF0028F9D021462548FCF7DB
:1045F00039FF00BF2449891C2248FCF7CAFF002864
:10460000F8D015F8011B1F48FCF72CFF00BF1E490E
:10461000891C1C48FCF7BDFF0028F8D004F10100FC
:10462000C4B2A6F10100C6B221E04FEAE47104EB86
:1046300051714FEAE101B4EBC10113D015F8011B30
:104640001048FCF70FFF00BF0F49891C0D48FCF70D
:10465000A0FF0028F8D004F10100C4B2A6F10100C7
:10466000C6B204E001210748FCF7ABFEA6E7002E26
:10467000DBD101210348FCF7A4FEBDE8F087000070
:1046800040000300005800408200070010B5802061
:10469000FCF7C4FB38B106210020404A126890475D
:1046A0008020FCF7CEFB4020FCF7B8FB38B1072197
:1046B00000203A4A126890474020FCF7C2FB10BD28
:1046C0002DE9FF4104464FF0010739464FF0040041
:1046D000FDF766F94FF0C000ADF80C004FF0480050
:1046E0008DF80F004FF003008DF80E0003A92C4841
:1046F000FCF716FC2A48FCF7BBFCC5B24FF04000A3
:1047000000EA650805F0400698EA060000D1074671
:104710002248046001210420FDF742F94FF0C00057
:10472000ADF80C004FF048008DF80F0003A91C48AD
:10473000FCF7F6FB01210846FDF732F906210020BF
:10474000FCF720FD07210020FCF71CFD4FF0400086
:1047500001904FF000008DF808004FF008008DF830
:1047600009004FF001008DF80A0001A8FCF7E5FAF6
:104770004FF017008DF800004FF002008DF8010097
:104780008DF802004FF001008DF803006846FCF739
:1047900049FA384604B0BDE8F08100003C01002031
:1047A000000801402DE9F04304460D46DDE90767A6
:1047B000002C08DA4FF02D0CA2F800C04FF00100D9
:1047C000C4F100040BE046B1002C06DD4FF02B0CC9
:1047D000A2F800C04FF0010001E04FF0000067496F
:1047E000DCB316E0A94210D14FF0300C22F810C013
:1047F00000F101004FF02E0C22F810C000F1010072
:104800004FF00A0CB1FBFCF108E04FF00A0CB1FBD1
:10481000FCF1B4FBF1FCBCF1000FE3D000BF19E0E8
:10482000B4FBF1FC0CF1300C0FFA8CFC22F810C038
:1048300000F10100B4FBF1FC01FB1C44A94205D1CD
:104840004FF02E0C22F810C000F101004FF00A0CBE
:10485000B1FBFCF10029E3D11EE0FFE74FF0300986
:10486000844600F1010022F81C9035B14FF02E096A
:10487000844600F1010022F81C9006E04FF0300958
:10488000844600F1010022F81C904FF00A0C95FBC1
:10489000FCFC5FEA0C05F1D122F8107000F1010078
:1048A000BDE8F0832DE9F04F85B006460F4615466A
:1048B0009846B6FBF7F007FB10664FF4B47006FBA2
:1048C00000F0C0EB00104FEA8000C0EB00104FEA90
:1048D000800BBBFBF7F94FF03C00B9FBF0F100FB9C
:1048E000119004904FF03C00B9FBF0F04FF03C0108
:1048F000B0FBF1F201FB120003904FF46160B9FBD1
:10490000F0F002904FF0000A4FF0B0004FF00001BD
:1049100043462A46CDE900100298FFF743FF0446BC
:10492000A24405EB4405A8EB040842F232004FF024
:10493000000143462A46CDE900100398FFF732FFF5
:104940000446A24405EB4405A8EB040842F23300F8
:104950004FF0000143462A46CDE900100498FFF7C6
:1049600021FF04464FF0FF3025F8140004F1010444
:104970000AEB040005B0BDE8F08F000000CA9A3BC6
:10498000FEB506460C4615463046FDF77FF8A4F105
:10499000010080B2ADF80400A5F1010080B2ADF8CD
:1049A00000004FF00000ADF80600ADF802006946C7
:1049B0003046FDF73FF901213046FEF733F801227A
:1049C00011463046FDF70FFD01213046FDF7EFFCA3
:1049D000FEBD38B504464FF4E06101F00702E74B35
:1049E00018684FF6FF0300EA0300E54B40EA0303B3
:1049F00043EA0220E14B186000BF8DF800404FF001
:104A000000008DF801008DF802004FF001008DF8D4
:104A100003006846FCF706F938BD10B50121880788
:104A2000FEF704F840B101218807FEF713F8D548D6
:104A30000068D5490968884710BD10B5012188076D
:104A4000FDF7F0FF002201218807FDF7CCFC0021D3
:104A50004FF08040FDF7ABFC10BD2DE9F04104465E
:104A60000D4617461E464FF001010846FCF7A7FF0A
:104A70001C20FFF7AEFFC4480760C24806602A4604
:104A800021464FF08040FFF77BFFBDE8F08110B575
:104A90000121BE48FDF7CAFF40B10121BB48FDF727
:104AA000D9FFBB480068BB490968884710BD10B5ED
:104AB0000121B648FDF7B6FF00220121B348FDF7FA
:104AC00092FC0021B148FDF772FC10BD2DE9F041C8
:104AD00004460D4617461E464FF001014FF00200F6
:104AE000FCF76DFF1D20FFF774FFAA480760A84878
:104AF00006602A462146A548FFF742FFBDE8F0813F
:104B000010B50121A448FDF791FF40B10121A24851
:104B1000FDF7A0FFA1480068A1490968884710BDBA
:104B200010B501219C48FDF77DFF002201219A4824
:104B3000FDF759FC00219848FDF739FC10BD2DE91F
:104B4000F04104460D4617461E464FF001014FF056
:104B50000400FCF734FF1E20FFF73BFF904807607E
:104B60008E4806602A4621468B48FFF709FFBDE8BC
:104B7000F08110B501218B48FDF758FF40B10121AC
:104B80008848FDF767FF88480068884909688847B2
:104B900010BD10B501218348FDF744FF002201211B
:104BA0008048FDF720FC00217E48FDF700FC10BD89
:104BB0002DE9F04104460D4617461E464FF001010F
:104BC0004FF00800FCF7FBFE3220FFF702FF7748AA
:104BD0000760754806602A4621467248FFF7D0FEF6
:104BE000BDE8F08110B501217148FDF71FFF40B10C
:104BF00001216F48FDF72EFF6E4800686E49096875
:104C0000884710BD10B501216948FDF70BFF002250
:104C100001216748FDF7E7FB00216548FDF7C7FB69
:104C200010BD2DE9F04104460D4617461E464FF0D3
:104C300001014FF01000FCF7C2FE3620FFF7C9FE5D
:104C40005D4807605B4806602A4621465848FFF7E2
:104C500097FEBDE8F08110B501215848FDF7E6FE4A
:104C600040B101215548FDF7F5FE5548006855490A
:104C70000968884710BD10B501215048FDF7D2FEE4
:104C8000002201214D48FDF7AEFB00214B48FDF706
:104C90008EFB10BD2DE9F04104460D4617461E4619
:104CA0004FF001014FF02000FCF789FE3720FFF79D
:104CB00090FE44480760424806602A4621463F4825
:104CC000FFF75EFEBDE8F08110B56FF00400FCF761
:104CD00000F810BD01463C4A12683C4BB2FBF3F2AF
:104CE00002FB01F24FF0E0235A614FF000029A619B
:104CF0001A46126942F001021A6100BF4FF0E02229
:104D0000106910F0010F02D010F4803FF6D04FF080
:104D1000E022126922F001024FF0E0231A614FF005
:104D200000029A6170470146274A12684FF4FA530D
:104D3000B2FBF3F202FB01F24FF0E0235A614FF0B5
:104D400000029A611A46126942F001021A6100BF1C
:104D50004FF0E022106910F0010F02D010F4803FF4
:104D6000F6D04FF0E022126922F001024FF0E0236A
:104D70001A614FF000029A61704700000CED00E0EC
:104D80000000FA054001002044010020000400401A
:104D9000480100204C010020000800405001002084
:104DA00054010020000C0040580100205C0100204C
:104DB0000010004060010020640100200014004049
:104DC000680100206C0100200800002000127A0019
:104DD00008B501214020FCF7E3FD00214020FCF74D
:104DE000FDFD4FF0FF00ADF800004FF010008DF812
:104DF00003004FF001008DF8020069467448FCF78B
:104E00008FF808BD08B501214020FCF7C9FD00213D
:104E10004020FCF7E3FD4FF0FF00ADF800004FF03D
:104E200004008DF803004FF001008DF80200694680
:104E30006748FCF775F808BD38B501214020FCF73C
:104E4000AFFD00214020FCF7C9FD01218020FCF7C7
:104E5000A7FD00218020FCF7C1FD4FF00F00ADF849
:104E600000004FF010008DF803004FF001008DF8A6
:104E7000020069465748FCF753F801214020FCF72F
:104E80008FFD00214020FCF7A9FD4FF0FF00ADF899
:104E900000004FF010008DF803004FF001008DF876
:104EA000020069464A48FCF73BF801211020FCF754
:104EB00077FD00211020FCF791FD4FF4C040ADF8C4
:104EC00000004FF010008DF803004FF001008DF846
:104ED000020069464048FCF723F800BF3FA004F0F9
:104EE000DBFF04462323224640A14748FFF7F2F8A0
:104EF00046A14548FFF7EEF800BFFF213448FCF714
:104F0000CDF80F213348FCF7C9F84FF4C0413248BF
:104F1000FCF7C4F8012038BD70B504460D464FF4C7
:104F2000C0412D48FCF7BAF80F212A48FCF7B6F823
:104F300021462848FCF7B0F8FF212548FCF7AEF8D9
:104F400029462348FCF7A8F84FF4C0412248FCF753
:104F5000A5F84FF400512048FCF7A0F84FF4804129
:104F60001D48FCF799F8FFF733FF4FF4C0411A488A
:104F7000FCF794F870BD70B504464FF000054FF48F
:104F8000C0411548FCF78AF80F211248FCF786F853
:104F900021461048FCF780F84FF4C0410E48FCF75A
:104FA0007DF84FF400510C48FCF776F84FF4C041FF
:104FB0000948FCF771F8FFF725FF0548FCF758F89A
:104FC000C5B24FF4C0410448FCF768F8284670BDEC
:104FD00000180140001C0140001001402E2E5C61B1
:104FE00070695C465047412E63707000493A4670C4
:104FF000676120496E69746564282920696E2025DF
:1050000073282564290000003A0100200A000000EE
:1050100008B501212020FCF7C3FC00212020FCF76B
:10502000DDFC4FF4E060ADF800004FF010008DF8AB
:1050300003004FF001008DF8020069460B48FBF7B2
:105040006FFF4FF4E0610948FCF728F8012008BD24
:1050500070B504460D4625B1A1B20448FCF71CF812
:1050600003E0A1B20148FCF719F870BD001401403B
:105070002DE9FF4F89B00F469246984641F6CE0083
:1050800097FBF0F100FB117798FBF0F100FB118822
:10509000384605F03CFACDE90201099805F037FAE7
:1050A00004460022FA4B05F049FACDE90001DDE99A
:1050B000022304F0FDFFCDE9040105F0F9F90790A2
:1050C000404605F024FACDE90201504605F01FFAEA
:1050D00004460022EE4B05F031FACDE90001DDE98E
:1050E000022304F0E5FFCDE9040105F0E1F90690A3
:1050F000DDE90610A0EB010041F6CE0190FBF1F2D4
:1051000001FB120BBBF1000F14DB584605F0FFF951
:105110000446E04ADE4B0F3B05F072F8CDE904018E
:1051200004F094FF064631464FF0894005F064FED6
:1051300081460FE0584605F0EAF90446D54AD44BBB
:105140000F3B05F05DF8CDE9040104F07FFF064652
:1051500086F0004948460DB0BDE8F08F41F6CE001C
:1051600070474FF4806070472DE9F04F89B00746D3
:105170000C4690461D46A146BB46AA46CDF8208067
:10518000CDF81C90FFF7EAFF00FB0BF1FFF7E9FFFA
:1051900091FBF0F00690CDF814A0FFF7DFFFDDF8EB
:1051A000208000FB08F1FFF7DCFF91FBF0F004909A
:1051B000DDE9060420440390DDE90405284402905B
:1051C000DDE90201A0EB0106FFF7C8FF96FBF0F155
:1051D00000FB1166FFF7C2FF0644FFF7BFFF96FB17
:1051E000F0F100FB1166FFF7BCFF00FB06F1FFF7D3
:1051F000B5FF91FBF0F00190019805F0D3FC09B0E8
:10520000BDE8F08F2DE9F0414FF000052846A24996
:105210000870FEF777FF3220FDF7AFFE28469F4962
:1052200008604FF0FF3088624FF030030A464FF0BD
:1052300000010846FFF763F89848006898498842DB
:1052400013D1964A2F322946944804E003780B4440
:10525000D9B200F101009042F8D1904890F82F00A7
:10526000884201D14FF0010500BF002D29D100BFB8
:105270008CA004F041FE074634233A468FA197489C
:10528000FEF728FF96A19548FEF724FF00BF834C48
:1052900030342E46814804E04FF00001017000F1E7
:1052A0000100A042F8D130237C4A00210846FEF7D5
:1052B000B7FF7B48794908604FF0010076490870D4
:1052C00000BFBDE8F081874A1160874A10607047CF
:1052D000854A12680260834A12680A607047834AEE
:1052E0001160834A10607047814A126802607F4AE9
:1052F00012680A6070477F49086070477D480068FF
:105300007047664A9071704764488079704738B535
:105310000446032C13D900BF62A004F0EDFD05463E
:105320006F202B46224674A100906C48FEF7D2FEF7
:105330006BA16A48FEF7CEFE00BF002038BD77485B
:1053400050F82400FAE7032800D97047734A42F85E
:10535000201000BFF9E7F8B504460D461646032CA9
:1053600012D900BF4FA004F0C7FD074676203B4688
:1053700022466BA100905948FEF7ACFE58A1574851
:10538000FEF7A8FE00BFF8BD4448083040F824509E
:10539000103040F8246000BFF5E7032802D94FF031
:1053A000000100E001463D4A916270473B48806A37
:1053B0007047F8B504460D46384880692860032CCC
:1053C00013D900BF37A004F097FD06468620334668
:1053D00022465EA100904148FEF77CFE40A13F4876
:1053E000FEF778FE00BF0020F8BD2C48183050F8BA
:1053F000240028602948083050F82400F4E7F8B564
:1054000005460E462548846A032C13D900BF25A003
:1054100004F072FD07468F203B46224656A10090BD
:105420002E48FEF757FE2EA12C48FEF753FE00BF74
:105430000020F8BD1948183050F824003060174893
:10544000083050F8240028600120F2E71349487121
:10545000704712484079704770B5104D2F354FF0A6
:1054600000040E4804E001782144CCB200F10100B0
:10547000A842F8D1094880F82F4030230246002185
:105480000846FEF7CDFE4FF000000349087070BDDE
:1054900000CE18406DE7FBA99C010020F83C0020DD
:1054A000EFBEEFBE2E2E5C73657474696E675C731D
:1054B000657474696E672E6370700000493A636F9B
:1054C0006E666967206973206E6F742076616C69FF
:1054D0006420696E20257328256429003A01002084
:1054E0000A000000800100208401002088010020C3
:1054F0008C01002094010020453A77726F6E67207E
:10550000676574496E707574282564290D0A2069D1
:105510006E202573282564290000000070010020FA
:10552000453A77726F6E67207365744261736543A5
:105530006F6E666967496E707574282564290D0A57
:1055400020696E202573282564290000453A77726A
:105550006F6E672067657442617365436F6E66693D
:1055600067496E707574282564290D0A20696E20BC
:105570002573282564290000453A77726F6E6720ED
:10558000636F6E6669672E64656661756C744261EF
:105590007365496E707574282564290D0A20696E3B
:1055A000202573282564290000B50146FFF7D9FDA1
:1055B00000FB01F3FFF7D2FD93FBF0F2104600BDB4
:1055C0002DE9F0470446FFF7CCFD804605F0EAFAE6
:1055D0000646FFF7C3FD814605F0E4FA8046214602
:1055E00005F02CFB0746314605F0FEF90546284636
:1055F000BDE8F0879C48006870474FF000009B4969
:105600000860486088609A490860486088609949E5
:10561000086070479748006800F1010095490860EC
:10562000704794480068704730B5904A52688F4B75
:105630001A601A4692685A601A4691608C4A5268FB
:105640008B4B1A601A4692685A601A469060874AD5
:105650001268864B5B689A4220DC844A5268834B0E
:105660009B689A421ADC814CA468804D2D68A4EB9B
:1056700005027F4CA4687E4D2D68A4EB05034FF016
:10568000320402FB04F4C4EB04144FEA8404B4FBB8
:10569000F3F44FEA1434744D2C6026E0734A126818
:1056A000724B5B689A4220DB704A52686F4B9B6872
:1056B0009A421ADB6D4C24686C4DAD68A4EB050270
:1056C0006B4CA4686A4D2D68A4EB05034FF03204BF
:1056D00002FB04F4C4EB04144FEA8404B4FBF3F4B7
:1056E0004FEA1434604D2C6000BF30BD6248007832
:1056F00070476149087070472DE9FF5F0446FFF766
:1057000030FD0546FFF72AFD0646FFF7F7FD074681
:105710004FF0000906FB07F0B0FBF5FA04EB0A00B6
:105720000390039805FB00F0B0FBF6F9B9FBF5F028
:1057300005FB109800BFAFF2942004F0DDFB834618
:10574000EF203B4622464DA1CDE9008B0290554803
:10575000FEF7C0FCAFF278215248FEF7BBFC00BF59
:10576000404604B0BDE8F09F4FF47A7070472DE9D1
:10577000F04104460D4616461F463B463246294632
:105780002046FFF775FC80464046BDE8F0812DE9D4
:10579000F84F04460D46FFF7E4FC8346FFF7DEFCB6
:1057A0000646284605F0FEF98246FFF709FF8146C6
:1057B00005F0DCF9074607EB040090FBF6F106FB69
:1057C000110800BFAFF2243004F096FB8146F920A7
:1057D0004B463A4634A100903248FEF77BFCAFF2CC
:1057E00000313048FEF776FC00BF00BFAFF24C300E
:1057F00004F082FB8146FA204B46224632A10090FB
:105800002848FEF767FCAFF228312648FEF762FC15
:1058100000BF00BFAFF2743004F06EFB8146FB2086
:105820004B46324631A100901E48FEF753FCAFF2C2
:1058300050311C48FEF74EFC00BF00BFAFF29C3059
:1058400004F05AFB8146FC204B4642462FA10090B3
:105850001448FEF73FFCAFF278311248FEF73AFCED
:1058600000BF4046BDE8F88F90010020283D002091
:10587000343D0020A00100209C010020493A6469C9
:1058800073743A25642C617869733A25642C20720C
:105890006573756C743A20256420696E2025732821
:1058A000256429003A010020453ACFD4CABEBDE1A3
:1058B000B9FBBDC7B6C8282564290D0A20696E202A
:1058C0002573282564290000453ACFD4CABEBDE11E
:1058D000B9FBCAE4C8EBBEE0C0EB282564290D0A79
:1058E00020696E202573282564290000453ACFD40D
:1058F000CABEBDE1B9FBD1C0BEE0282564290D0AAE
:1059000020696E202573282564290000453ACFD4EC
:10591000CABEBDE1B9FBB2E2C1BFB5C430B6C8BEB4
:10592000E0C0EB282564290D0A20696E2025732824
:1059300025642900704700001CB50C46064B7B44CB
:1059400069460090204600F00EF9044600206946A2
:1059500000F01CF920461CBD4B02000010B5203A97
:10596000C0F00B80B1E81850203AA0E81850B1E818
:105970001850A0E81850BFF4F5AF5FEA027C24BFCE
:10598000B1E81850A0E8185044BF18C918C0BDE8C5
:1059900010405FEA827C24BF51F8043B40F8043B8E
:1059A00008BF7047D20728BF31F8023B48BF11F843
:1059B000012B28BF20F8023B48BF00F8012B70479D
:1059C000704770477047000070B5064C7C44064D28
:1059D0007D4403E0206820448047241DAC42F9D177
:1059E00070BD00000059000004590000704770B5F8
:1059F000044685690068C10601D5302600E02026EE
:105A0000C00708D070BDD4E9012130469047206A14
:105A100000F1010020626D1EF5D570BD70B5044621
:105A200085690068C00708D170BDD4E90121202034
:105A30009047206A00F1010020626D1EF5D570BD0F
:105A400009684A0501D540B27047C905FCD500B2C6
:105A5000704709684A0501D5C0B27047C905FCD531
:105A600080B2704770B505460C46012A05D02868FB
:105A7000800600D5EA69002302E0012305E05B1CF3
:105A8000934202D2E05C0028F9D1A869E618C01A56
:105A9000A861286A184428622846FFF7A8FF04E096
:105AA000D5E9012114F8010B9047B442F8D32846F8
:105AB000FFF7B4FF70BD00002DE9F0410746002557
:105AC00010687529394616A411D0FFF7B9FF0028D0
:105AD00003DAC0F1000013A407E039688A0701D592
